{
  "_format": "hh3-artifact-1",
  "contractName": "Voting",
  "sourceName": "contracts/Voting.sol",
  "abi": [
    {
      "inputs": [],
      "stateMutability": "nonpayable",
      "type": "constructor"
    },
    {
      "anonymous": false,
      "inputs": [
        {
          "indexed": true,
          "internalType": "uint256",
          "name": "index",
          "type": "uint256"
        },
        {
          "indexed": false,
          "internalType": "string",
          "name": "name",
          "type": "string"
        }
      ],
      "name": "CandidateAdded",
      "type": "event"
    },
    {
      "anonymous": false,
      "inputs": [],
      "name": "ElectionEnded",
      "type": "event"
    },
    {
      "anonymous": false,
      "inputs": [],
      "name": "ElectionStarted",
      "type": "event"
    },
    {
      "anonymous": false,
      "inputs": [
        {
          "indexed": true,
          "internalType": "address",
          "name": "voter",
          "type": "address"
        },
        {
          "indexed": true,
          "internalType": "uint256",
          "name": "candidateIndex",
          "type": "uint256"
        }
      ],
      "name": "VoteCast",
      "type": "event"
    },
    {
      "anonymous": false,
      "inputs": [
        {
          "indexed": true,
          "internalType": "address",
          "name": "voter",
          "type": "address"
        }
      ],
      "name": "VoterWhitelisted",
      "type": "event"
    },
    {
      "inputs": [
        {
          "internalType": "string",
          "name": "name",
          "type": "string"
        }
      ],
      "name": "addCandidate",
      "outputs": [],
      "stateMutability": "nonpayable",
      "type": "function"
    },
    {
      "inputs": [],
      "name": "admin",
      "outputs": [
        {
          "internalType": "address",
          "name": "",
          "type": "address"
        }
      ],
      "stateMutability": "view",
      "type": "function"
    },
    {
      "inputs": [
        {
          "internalType": "uint256",
          "name": "",
          "type": "uint256"
        }
      ],
      "name": "candidates",
      "outputs": [
        {
          "internalType": "string",
          "name": "name",
          "type": "string"
        },
        {
          "internalType": "uint256",
          "name": "voteCount",
          "type": "uint256"
        }
      ],
      "stateMutability": "view",
      "type": "function"
    },
    {
      "inputs": [],
      "name": "endElection",
      "outputs": [],
      "stateMutability": "nonpayable",
      "type": "function"
    },
    {
      "inputs": [],
      "name": "getAllCandidates",
      "outputs": [
        {
          "components": [
            {
              "internalType": "string",
              "name": "name",
              "type": "string"
            },
            {
              "internalType": "uint256",
              "name": "voteCount",
              "type": "uint256"
            }
          ],
          "internalType": "struct Voting.Candidate[]",
          "name": "",
          "type": "tuple[]"
        }
      ],
      "stateMutability": "view",
      "type": "function"
    },
    {
      "inputs": [
        {
          "internalType": "uint256",
          "name": "index",
          "type": "uint256"
        }
      ],
      "name": "getCandidate",
      "outputs": [
        {
          "internalType": "string",
          "name": "name",
          "type": "string"
        },
        {
          "internalType": "uint256",
          "name": "voteCount",
          "type": "uint256"
        }
      ],
      "stateMutability": "view",
      "type": "function"
    },
    {
      "inputs": [],
      "name": "getWinner",
      "outputs": [
        {
          "internalType": "string",
          "name": "winnerName",
          "type": "string"
        },
        {
          "internalType": "uint256",
          "name": "winnerVotes",
          "type": "uint256"
        }
      ],
      "stateMutability": "view",
      "type": "function"
    },
    {
      "inputs": [
        {
          "internalType": "address",
          "name": "",
          "type": "address"
        }
      ],
      "name": "hasVoted",
      "outputs": [
        {
          "internalType": "bool",
          "name": "",
          "type": "bool"
        }
      ],
      "stateMutability": "view",
      "type": "function"
    },
    {
      "inputs": [
        {
          "internalType": "address",
          "name": "",
          "type": "address"
        }
      ],
      "name": "isWhitelisted",
      "outputs": [
        {
          "internalType": "bool",
          "name": "",
          "type": "bool"
        }
      ],
      "stateMutability": "view",
      "type": "function"
    },
    {
      "inputs": [],
      "name": "startElection",
      "outputs": [],
      "stateMutability": "nonpayable",
      "type": "function"
    },
    {
      "inputs": [],
      "name": "state",
      "outputs": [
        {
          "internalType": "enum Voting.ElectionState",
          "name": "",
          "type": "uint8"
        }
      ],
      "stateMutability": "view",
      "type": "function"
    },
    {
      "inputs": [
        {
          "internalType": "uint256",
          "name": "candidateIndex",
          "type": "uint256"
        }
      ],
      "name": "vote",
      "outputs": [],
      "stateMutability": "nonpayable",
      "type": "function"
    },
    {
      "inputs": [
        {
          "internalType": "address",
          "name": "voter",
          "type": "address"
        }
      ],
      "name": "whitelistVoter",
      "outputs": [],
      "stateMutability": "nonpayable",
      "type": "function"
    }
  ],
  "bytecode": "0x608060405234801561001057600080fd5b50336000806101000a81548173ffffffffffffffffffffffffffffffffffffffff021916908373ffffffffffffffffffffffffffffffffffffffff16021790555060008060146101000a81548160ff0219169083600281111561007657610075610080565b5b02179055506100af565b7f4e487b7100000000000000000000000000000000000000000000000000000000600052602160045260246000fd5b612033806100be6000396000f3fe608060405234801561001057600080fd5b50600436106100cf5760003560e01c8063462e91ec1161008c5780638e7ea5b2116100665780638e7ea5b214610200578063bddf1ce91461021f578063c19d93fb1461023b578063f851a44014610259576100cf565b8063462e91ec146101d057806359f78468146101ec57806362d73eb8146101f6576100cf565b80630121b93f146100d457806309eef43e146100f05780632e6997fe146101205780633477ee2e1461013e57806335b8e8201461016f5780633af32abf146101a0575b600080fd5b6100ee60048036038101906100e991906111da565b610277565b005b61010a60048036038101906101059190611265565b610528565b60405161011791906112ad565b60405180910390f35b610128610548565b6040516101359190611466565b60405180910390f35b610158600480360381019061015391906111da565b610643565b6040516101669291906114e1565b60405180910390f35b610189600480360381019061018491906111da565b6106ff565b6040516101979291906114e1565b60405180910390f35b6101ba60048036038101906101b59190611265565b61080f565b6040516101c791906112ad565b60405180910390f35b6101ea60048036038101906101e59190611646565b61082f565b005b6101f4610a25565b005b6101fe610b82565b005b610208610d26565b6040516102169291906114e1565b60405180910390f35b61023960048036038101906102349190611265565b610f48565b005b610243611159565b6040516102509190611706565b60405180910390f35b61026161116c565b60405161026e9190611730565b60405180910390f35b6001600281111561028b5761028a61168f565b5b600060149054906101000a900460ff1660028111156102ad576102ac61168f565b5b146102ed576040517f08c379a00000000000000000000000000000000000000000000000000000000081526004016102e490611797565b60405180910390fd5b600260003373ffffffffffffffffffffffffffffffffffffffff1673ffffffffffffffffffffffffffffffffffffffff16815260200190815260200160002060009054906101000a900460ff16610379576040517f08c379a000000000000000000000000000000000000000000000000000000000815260040161037090611803565b60405180910390fd5b600360003373ffffffffffffffffffffffffffffffffffffffff1673ffffffffffffffffffffffffffffffffffffffff16815260200190815260200160002060009054906101000a900460ff1615610406576040517f08c379a00000000000000000000000000000000000000000000000000000000081526004016103fd9061186f565b60405180910390fd5b600180549050811061044d576040517f08c379a0000000000000000000000000000000000000000000000000000000008152600401610444906118db565b60405180910390fd5b6001600360003373ffffffffffffffffffffffffffffffffffffffff1673ffffffffffffffffffffffffffffffffffffffff16815260200190815260200160002060006101000a81548160ff02191690831515021790555060018082815481106104ba576104b96118fb565b5b906000526020600020906002020160010160008282546104da9190611959565b92505081905550803373ffffffffffffffffffffffffffffffffffffffff167fa36cc2bebb74db33e9f88110a07ef56e1b31b24b4c4f51b54b1664266e29f45b60405160405180910390a350565b60036020528060005260406000206000915054906101000a900460ff1681565b60606001805480602002602001604051908101604052809291908181526020016000905b8282101561063a578382906000526020600020906002020160405180604001604052908160008201805461059f906119bc565b80601f01602080910402602001604051908101604052809291908181526020018280546105cb906119bc565b80156106185780601f106105ed57610100808354040283529160200191610618565b820191906000526020600020905b8154815290600101906020018083116105fb57829003601f168201915b505050505081526020016001820154815250508152602001906001019061056c565b50505050905090565b6001818154811061065357600080fd5b9060005260206000209060020201600091509050806000018054610676906119bc565b80601f01602080910402602001604051908101604052809291908181526020018280546106a2906119bc565b80156106ef5780601f106106c4576101008083540402835291602001916106ef565b820191906000526020600020905b8154815290600101906020018083116106d257829003601f168201915b5050505050908060010154905082565b60606000600180549050831061074a576040517f08c379a0000000000000000000000000000000000000000000000000000000008152600401610741906118db565b60405180910390fd5b6000600184815481106107605761075f6118fb565b5b90600052602060002090600202019050806000018160010154818054610785906119bc565b80601f01602080910402602001604051908101604052809291908181526020018280546107b1906119bc565b80156107fe5780601f106107d3576101008083540402835291602001916107fe565b820191906000526020600020905b8154815290600101906020018083116107e157829003601f168201915b505050505091509250925050915091565b60026020528060005260406000206000915054906101000a900460ff1681565b60008054906101000a900473ffffffffffffffffffffffffffffffffffffffff1673ffffffffffffffffffffffffffffffffffffffff163373ffffffffffffffffffffffffffffffffffffffff16146108bd576040517f08c379a00000000000000000000000000000000000000000000000000000000081526004016108b490611a39565b60405180910390fd5b600060028111156108d1576108d061168f565b5b600060149054906101000a900460ff1660028111156108f3576108f261168f565b5b14610933576040517f08c379a000000000000000000000000000000000000000000000000000000000815260040161092a90611aa5565b60405180910390fd5b6000815111610977576040517f08c379a000000000000000000000000000000000000000000000000000000000815260040161096e90611b11565b60405180910390fd5b600160405180604001604052808381526020016000815250908060018154018082558091505060019003906000526020600020906002020160009091909190915060008201518160000190816109cd9190611cdd565b50602082015181600101555050600180805490506109eb9190611daf565b7fe83b2a43e7e82d975c8a0a6d2f045153c869e111136a34d1889ab7b598e396a382604051610a1a9190611de3565b60405180910390a250565b60008054906101000a900473ffffffffffffffffffffffffffffffffffffffff1673ffffffffffffffffffffffffffffffffffffffff163373ffffffffffffffffffffffffffffffffffffffff1614610ab3576040517f08c379a0000000000000000000000000000000000000000000000000000000008152600401610aaa90611a39565b60405180910390fd5b60016002811115610ac757610ac661168f565b5b600060149054906101000a900460ff166002811115610ae957610ae861168f565b5b14610b29576040517f08c379a0000000000000000000000000000000000000000000000000000000008152600401610b2090611797565b60405180910390fd5b6002600060146101000a81548160ff02191690836002811115610b4f57610b4e61168f565b5b02179055507f66ec723071e4bb646f7b35d31bc2dee8510979bd8c180edd0690d4f5e802f1e460405160405180910390a1565b60008054906101000a900473ffffffffffffffffffffffffffffffffffffffff1673ffffffffffffffffffffffffffffffffffffffff163373ffffffffffffffffffffffffffffffffffffffff1614610c10576040517f08c379a0000000000000000000000000000000000000000000000000000000008152600401610c0790611a39565b60405180910390fd5b60006002811115610c2457610c2361168f565b5b600060149054906101000a900460ff166002811115610c4657610c4561168f565b5b14610c86576040517f08c379a0000000000000000000000000000000000000000000000000000000008152600401610c7d90611aa5565b60405180910390fd5b6001808054905011610ccd576040517f08c379a0000000000000000000000000000000000000000000000000000000008152600401610cc490611e51565b60405180910390fd5b6001600060146101000a81548160ff02191690836002811115610cf357610cf261168f565b5b02179055507fc475c26aa25ed8e85a7faa790e5f63b5d7ee1025f12821f4c9bfddd36ab4d11260405160405180910390a1565b60606000600280811115610d3d57610d3c61168f565b5b600060149054906101000a900460ff166002811115610d5f57610d5e61168f565b5b14610d9f576040517f08c379a0000000000000000000000000000000000000000000000000000000008152600401610d9690611ebd565b60405180910390fd5b600060018054905011610de7576040517f08c379a0000000000000000000000000000000000000000000000000000000008152600401610dde90611f29565b60405180910390fd5b60008060005b600180549050811015610e66578260018281548110610e0f57610e0e6118fb565b5b9060005260206000209060020201600101541115610e535760018181548110610e3b57610e3a6118fb565b5b90600052602060002090600202016001015492508091505b8080610e5e90611f49565b915050610ded565b5060018181548110610e7b57610e7a6118fb565b5b906000526020600020906002020160000160018281548110610ea057610e9f6118fb565b5b906000526020600020906002020160010154818054610ebe906119bc565b80601f0160208091040260200160405190810160405280929190818152602001828054610eea906119bc565b8015610f375780601f10610f0c57610100808354040283529160200191610f37565b820191906000526020600020905b815481529060010190602001808311610f1a57829003601f168201915b505050505091509350935050509091565b60008054906101000a900473ffffffffffffffffffffffffffffffffffffffff1673ffffffffffffffffffffffffffffffffffffffff163373ffffffffffffffffffffffffffffffffffffffff1614610fd6576040517f08c379a0000000000000000000000000000000000000000000000000000000008152600401610fcd90611a39565b60405180910390fd5b60006002811115610fea57610fe961168f565b5b600060149054906101000a900460ff16600281111561100c5761100b61168f565b5b1461104c576040517f08c379a000000000000000000000000000000000000000000000000000000000815260040161104390611aa5565b60405180910390fd5b600073ffffffffffffffffffffffffffffffffffffffff168173ffffffffffffffffffffffffffffffffffffffff16036110bb576040517f08c379a00000000000000000000000000000000000000000000000000000000081526004016110b290611fdd565b60405180910390fd5b6001600260008373ffffffffffffffffffffffffffffffffffffffff1673ffffffffffffffffffffffffffffffffffffffff16815260200190815260200160002060006101000a81548160ff0219169083151502179055508073ffffffffffffffffffffffffffffffffffffffff167f5cb979827581f5a2d6accf830511f42bc79705dde54d001643bb14fea7f75d5860405160405180910390a250565b600060149054906101000a900460ff1681565b60008054906101000a900473ffffffffffffffffffffffffffffffffffffffff1681565b6000604051905090565b600080fd5b600080fd5b6000819050919050565b6111b7816111a4565b81146111c257600080fd5b50565b6000813590506111d4816111ae565b92915050565b6000602082840312156111f0576111ef61119a565b5b60006111fe848285016111c5565b91505092915050565b600073ffffffffffffffffffffffffffffffffffffffff82169050919050565b600061123282611207565b9050919050565b61124281611227565b811461124d57600080fd5b50565b60008135905061125f81611239565b92915050565b60006020828403121561127b5761127a61119a565b5b600061128984828501611250565b91505092915050565b60008115159050919050565b6112a781611292565b82525050565b60006020820190506112c2600083018461129e565b92915050565b600081519050919050565b600082825260208201905092915050565b6000819050602082019050919050565b600081519050919050565b600082825260208201905092915050565b60005b8381101561132e578082015181840152602081019050611313565b60008484015250505050565b6000601f19601f8301169050919050565b6000611356826112f4565b61136081856112ff565b9350611370818560208601611310565b6113798161133a565b840191505092915050565b61138d816111a4565b82525050565b600060408301600083015184820360008601526113b0828261134b565b91505060208301516113c56020860182611384565b508091505092915050565b60006113dc8383611393565b905092915050565b6000602082019050919050565b60006113fc826112c8565b61140681856112d3565b935083602082028501611418856112e4565b8060005b85811015611454578484038952815161143585826113d0565b9450611440836113e4565b925060208a0199505060018101905061141c565b50829750879550505050505092915050565b6000602082019050818103600083015261148081846113f1565b905092915050565b600082825260208201905092915050565b60006114a4826112f4565b6114ae8185611488565b93506114be818560208601611310565b6114c78161133a565b840191505092915050565b6114db816111a4565b82525050565b600060408201905081810360008301526114fb8185611499565b905061150a60208301846114d2565b9392505050565b600080fd5b600080fd5b7f4e487b7100000000000000000000000000000000000000000000000000000000600052604160045260246000fd5b6115538261133a565b810181811067ffffffffffffffff821117156115725761157161151b565b5b80604052505050565b6000611585611190565b9050611591828261154a565b919050565b600067ffffffffffffffff8211156115b1576115b061151b565b5b6115ba8261133a565b9050602081019050919050565b82818337600083830152505050565b60006115e96115e484611596565b61157b565b90508281526020810184848401111561160557611604611516565b5b6116108482856115c7565b509392505050565b600082601f83011261162d5761162c611511565b5b813561163d8482602086016115d6565b91505092915050565b60006020828403121561165c5761165b61119a565b5b600082013567ffffffffffffffff81111561167a5761167961119f565b5b61168684828501611618565b91505092915050565b7f4e487b7100000000000000000000000000000000000000000000000000000000600052602160045260246000fd5b600381106116cf576116ce61168f565b5b50565b60008190506116e0826116be565b919050565b60006116f0826116d2565b9050919050565b611700816116e5565b82525050565b600060208201905061171b60008301846116f7565b92915050565b61172a81611227565b82525050565b60006020820190506117456000830184611721565b92915050565b7f456c656374696f6e206973206e6f74206f6e676f696e67000000000000000000600082015250565b6000611781601783611488565b915061178c8261174b565b602082019050919050565b600060208201905081810360008301526117b081611774565b9050919050565b7f4e6f742077686974656c69737465640000000000000000000000000000000000600082015250565b60006117ed600f83611488565b91506117f8826117b7565b602082019050919050565b6000602082019050818103600083015261181c816117e0565b9050919050565b7f416c726561647920766f74656400000000000000000000000000000000000000600082015250565b6000611859600d83611488565b915061186482611823565b602082019050919050565b600060208201905081810360008301526118888161184c565b9050919050565b7f496e76616c69642063616e646964617465000000000000000000000000000000600082015250565b60006118c5601183611488565b91506118d08261188f565b602082019050919050565b600060208201905081810360008301526118f4816118b8565b9050919050565b7f4e487b7100000000000000000000000000000000000000000000000000000000600052603260045260246000fd5b7f4e487b7100000000000000000000000000000000000000000000000000000000600052601160045260246000fd5b6000611964826111a4565b915061196f836111a4565b92508282019050808211156119875761198661192a565b5b92915050565b7f4e487b7100000000000000000000000000000000000000000000000000000000600052602260045260246000fd5b600060028204905060018216806119d457607f821691505b6020821081036119e7576119e661198d565b5b50919050565b7f4f6e6c792061646d696e00000000000000000000000000000000000000000000600082015250565b6000611a23600a83611488565b9150611a2e826119ed565b602082019050919050565b60006020820190508181036000830152611a5281611a16565b9050919050565b7f456c656374696f6e20616c726561647920737461727465640000000000000000600082015250565b6000611a8f601883611488565b9150611a9a82611a59565b602082019050919050565b60006020820190508181036000830152611abe81611a82565b9050919050565b7f4e616d6520726571756972656400000000000000000000000000000000000000600082015250565b6000611afb600d83611488565b9150611b0682611ac5565b602082019050919050565b60006020820190508181036000830152611b2a81611aee565b9050919050565b60008190508160005260206000209050919050565b60006020601f8301049050919050565b600082821b905092915050565b600060088302611b937fffffffffffffffffffffffffffffffffffffffffffffffffffffffffffffffff82611b56565b611b9d8683611b56565b95508019841693508086168417925050509392505050565b6000819050919050565b6000611bda611bd5611bd0846111a4565b611bb5565b6111a4565b9050919050565b6000819050919050565b611bf483611bbf565b611c08611c0082611be1565b848454611b63565b825550505050565b600090565b611c1d611c10565b611c28818484611beb565b505050565b5b81811015611c4c57611c41600082611c15565b600181019050611c2e565b5050565b601f821115611c9157611c6281611b31565b611c6b84611b46565b81016020851015611c7a578190505b611c8e611c8685611b46565b830182611c2d565b50505b505050565b600082821c905092915050565b6000611cb460001984600802611c96565b1980831691505092915050565b6000611ccd8383611ca3565b9150826002028217905092915050565b611ce6826112f4565b67ffffffffffffffff811115611cff57611cfe61151b565b5b611d0982546119bc565b611d14828285611c50565b600060209050601f831160018114611d475760008415611d35578287015190505b611d3f8582611cc1565b865550611da7565b601f198416611d5586611b31565b60005b82811015611d7d57848901518255600182019150602085019450602081019050611d58565b86831015611d9a5784890151611d96601f891682611ca3565b8355505b6001600288020188555050505b505050505050565b6000611dba826111a4565b9150611dc5836111a4565b9250828203905081811115611ddd57611ddc61192a565b5b92915050565b60006020820190508181036000830152611dfd8184611499565b905092915050565b7f416464206174206c6561737420322063616e6469646174657300000000000000600082015250565b6000611e3b601983611488565b9150611e4682611e05565b602082019050919050565b60006020820190508181036000830152611e6a81611e2e565b9050919050565b7f456c656374696f6e206e6f7420656e6465640000000000000000000000000000600082015250565b6000611ea7601283611488565b9150611eb282611e71565b602082019050919050565b60006020820190508181036000830152611ed681611e9a565b9050919050565b7f4e6f2063616e6469646174657300000000000000000000000000000000000000600082015250565b6000611f13600d83611488565b9150611f1e82611edd565b602082019050919050565b60006020820190508181036000830152611f4281611f06565b9050919050565b6000611f54826111a4565b91507fffffffffffffffffffffffffffffffffffffffffffffffffffffffffffffffff8203611f8657611f8561192a565b5b600182019050919050565b7f496e76616c696420766f74657200000000000000000000000000000000000000600082015250565b6000611fc7600d83611488565b9150611fd282611f91565b602082019050919050565b60006020820190508181036000830152611ff681611fba565b905091905056fea264697066735822122035dbaa033ec584040f3fca994cc6835bcd058e40850551665ebd32775d80824e64736f6c63430008130033",
  "linkReferences": {},
  "deployedLinkReferences": {},
  "immutableReferences": {},
  "inputSourceName": "project/contracts/Voting.sol",
  "buildInfoId": "solc-0_8_19-0bc7f7ed80b402e489f16078ce55021442b3981c"
}